:1000000071C0000079C0000077C0000075C000001A
:1000100073C0000071C000006FC000006DC0000020
:100020006BC0000069C0000067C0000065C0000030
:1000300063C0000061C000005FC000005DC0000040
:100040005BC0000059C0000057C0000055C0000050
:1000500053C0000051C000004FC000004DC0000060
:100060004BC0000049C0000047C0000045C0000070
:1000700043C0000041C000003FC000003DC0000080
:100080003BC0000039C0000037C0000035C0000090
:1000900033C0000031C000002FC000002DC00000A0
:1000A0002BC0000029C0000027C0000025C00000B0
:1000B00023C0000021C000001FC000001DC00000C0
:1000C0001BC0000019C0000017C0000015C00000D0
:1000D00013C0000011C000000FC000000DC00000E0
:1000E0000BC0000011241FBECFEFD1E2DEBFCDBF99
:1000F00000E00CBF27D164C183CF22E02093C00071
:100100002BEF2093C10026E02093C200892B39F405
:100110008FEC90E09093C5008093C400089587E62B
:1001200090E09093C5008093C4000895E0ECF0E067
:1001300080818823ECF78091C6000895E0ECF0E020
:10014000908195FFFDCF8093C6000895EF92FF92B6
:100150000F931F93CF937C0100E010E0E7DFC82FDF
:100160000331110568F4883069F08D30F1F0E6DF75
:10017000F701C0830F5F1F4FC70101967C01EECFCF
:10018000883089F40115110549F388E0D7DF80E252
:10019000D5DF88E0D3DFF701108201501109C701D4
:1001A00001977C01DBCF8D30C9F6F7011082CF912A
:1001B0001F910F91FF90EF900895CF93DF93EC0183
:1001C0008881882329F02196B9DF89918111FCCF9C
:1001D000DF91CF9108950F931F93CF93DF93FC018D
:1001E0009B016115710561F0CB01C0E0D0E0042FE7
:1001F00010E0B801D1D0CB0121960097D1F702C011
:10020000C0E0D0E02196EC0FFD1F1082C42FD0E09B
:10021000C901BE01C1D0262F372F8A30910510F0B9
:10022000895C01C0805D82932115310589F7DF91DA
:10023000CF911F910F91089585E580DF8EE47EDFD9
:1002400089E47CDF86E57ADF85E478DF82E576DFA6
:1002500083E574DF89E472DF84E470DF81E46EDFBC
:1002600084E46CDF80E26ADF81E468DF85E566DFD5
:1002700084E564DF8FE462DF8EE460DF8FE45EDFBD
:100280008DE45CDF81E45ADF80E258DF84E456DFEE
:1002900085E454DF80E252DF82E450DF81E44EDF08
:1002A0008AE44CDF81E44ADF80E248DF83E446DF12
:1002B00081E444DF8CE442DF89E440DF86E43EDF12
:1002C0008FE43CDF82E53ADF8EE438DF89E436DF15
:1002D00081E434DF8AE032DF8DE030DF80E52EDF3D
:1002E00082E52CDF81E42ADF83E428DF84E526DF52
:1002F00089E424DF83E422DF81E420DF80E21EDF63
:1003000088E31CDF81E61ADF8AE018DF8DE016CF74
:1003100008958AE013DF8DE011CF0895FADFF9DF49
:1003200083E40CDF81E40ADF84E408DF85E406DF90
:100330008EE404DF81E402DF8AE300DF80E2FEDE98
:10034000E8CF0895CF93DF93CDB7DEB76E970FB6A2
:10035000F894DEBF0FBECDBF80E090E0CEDE6CDF54
:10036000CE010196F3DEDADFCE01019626DF4AE008
:100370006FEE70E0CE0145962EDFCBDFCE014596C5
:100380001CDF80E090E06E960FB6F894DEBF0FBEE3
:10039000CDBFDF91CF910895AA1BBB1B51E107C0D0
:1003A000AA1FBB1FA617B70710F0A61BB70B881F05
:1003B000991F5A95A9F780959095BC01CD01089594
:0403C000F894FFCFDF
:00000001FF
