S00B00005038612E7372656330
S113000071C0000079C0000077C0000075C0000016
S113001073C0000071C000006FC000006DC000001C
S11300206BC0000069C0000067C0000065C000002C
S113003063C0000061C000005FC000005DC000003C
S11300405BC0000059C0000057C0000055C000004C
S113005053C0000051C000004FC000004DC000005C
S11300604BC0000049C0000047C0000045C000006C
S113007043C0000041C000003FC000003DC000007C
S11300803BC0000039C0000037C0000035C000008C
S113009033C0000031C000002FC000002DC000009C
S11300A02BC0000029C0000027C0000025C00000AC
S11300B023C0000021C000001FC000001DC00000BC
S11300C01BC0000019C0000017C0000015C00000CC
S11300D013C0000011C000000FC000000DC00000DC
S11300E00BC0000011241FBECFEFD1E2DEBFCDBF95
S11300F000E00CBF37D176C183CF22E02093C0004B
S11301002BEF2093C10026E02093C200892B39F401
S11301108FEC90E09093C5008093C400089587E627
S113012090E09093C5008093C4000895E0ECF0E063
S113013080818823ECF78091C6000895E0ECF0E01C
S1130140908195FFFDCF8093C6000895EF92FF92B2
S11301500F931F93CF937C0100E010E0E7DFC82FDB
S11301600331110568F4883069F08D30F1F0E6DF71
S1130170F701C0830F5F1F4FC70101967C01EECFCB
S1130180883089F40115110549F388E0D7DF80E24E
S1130190D5DF88E0D3DFF701108201501109C701D0
S11301A001977C01DBCF8D30C9F6F7011082CF9126
S11301B01F910F91FF90EF900895CF93DF93EC017F
S11301C08881882329F02196B9DF89918111FCCF98
S11301D0DF91CF9108950F931F93CF93DF931F92D5
S11301E01F92CDB7DEB79B01FC01042F10E001C0C4
S11301F0FB01C901B801E2D0262F372F8A309105BF
S113020010F0895C01C0805DBF016F5F7F4F808308
S11302102115310569F71182FA83E983AE014F5F35
S11302205F4F08C0D9018C939F01215031093A8353
S113023029839083FA0121913191AF01D9019C91D5
S1130240E981FA8180819813EDCF0F900F90DF91AF
S1130250CF911F910F91089585E570DF8EE46EDFD5
S113026089E46CDF86E56ADF85E468DF82E566DFC2
S113027083E564DF89E462DF84E460DF81E45EDFD8
S113028084E45CDF80E25ADF81E458DF85E556DFF1
S113029084E554DF8FE452DF8EE450DF8FE44EDFD9
S11302A08DE44CDF81E44ADF80E248DF84E446DF0A
S11302B085E444DF80E242DF82E440DF81E43EDF24
S11302C08AE43CDF81E43ADF80E238DF83E436DF2E
S11302D081E434DF8CE432DF89E430DF86E42EDF2E
S11302E08FE42CDF82E52ADF8EE428DF89E426DF31
S11302F081E424DF8AE022DF8DE020DF80E51EDF59
S113030082E51CDF81E41ADF83E418DF84E516DF6D
S113031089E414DF83E412DF81E410DF80E20EDF7E
S113032088E30CDF81E60ADF8AE008DF8DE006CF90
S113033008958AE003DF8DE001CF0895FADFF9DF45
S113034083E4FCDE81E4FADE84E4F8DE85E4F6DEB0
S11303508EE4F4DE81E4F2DE8AE3F0DE80E2EEDEB7
S1130360E8CF0895CF93DF93CDB7DEB76E970FB67E
S1130370F894DEBF0FBECDBF80E090E0BEDE6CDF40
S1130380CE010196E3DEDADFCE01019616DF4AE004
S11303906FEE70E0CE0145961EDFCBDFCE014596B1
S11303A00CDFC7DFC6DF80E090E06E960FB6F894EE
S11303B0DEBF0FBECDBFDF91CF910895AA1BBB1B3B
S11303C051E107C0AA1FBB1FA617B70710F0A61B51
S11303D0B70B881F991F5A95A9F780959095BC0172
S10B03E0CD010895F894FFCF4C
S9030000FC
