:1000000071C0000081C000007FC000007DC0000002
:100010007BC0000079C0000077C0000075C0000000
:1000200073C0000071C000006FC000006DC0000010
:100030006BC0000069C0000067C0000065C0000020
:1000400063C0000061C000005FC000005DC0000030
:100050005BC0000059C0000057C0000055C0000040
:1000600053C0000051C000004FC000004DC0000050
:100070004BC0000049C0000047C0000045C0000060
:1000800043C0000041C000003FC000003DC0000070
:100090003BC0000039C0000037C0000035C0000080
:1000A00033C0000031C000002FC000002DC0000090
:1000B0002BC0000029C0000027C0000025C00000A0
:1000C00023C0000021C000001FC000001DC00000B0
:1000D0001BC0000019C0000017C0000015C00000C0
:1000E00013C0000011241FBECFEFD1E2DEBFCDBF91
:1000F00000E00CBF22E0A0E0B2E001C01D92A630FB
:10010000B207E1F7BFD037C17BCF22E02093C00018
:100110002BEF2093C10026E02093C200892B39F4F5
:100120008FEC90E09093C5008093C400089587E61B
:1001300090E09093C5008093C4000895CF93DF931F
:10014000E0ECF0E080818823ECF7C6ECD0E0888119
:1001500090E0D0D08881DF91CF910895E0ECF0E07D
:10016000908195FFFDCF8093C60008950F931F9354
:10017000CF93DF93EC01E2DF8A3011F08993FBCF5C
:100180001882DF91CF911F910F910895CF93DF9344
:10019000EC018881882331F0219690E0ABD08991E1
:1001A0008111FBCFDF91CF91089585E5D7DF8EE4F4
:1001B000D5DF89E4D3DF86E5D1DF85E4CFDF82E5D3
:1001C000CDDF83E5CBDF89E4C9DF84E4C7DF81E4E9
:1001D000C5DF84E4C3DF80E2C1DF81E4BFDF85E502
:1001E000BDDF84E5BBDF8FE4B9DF8EE4B7DF8FE4EA
:1001F000B5DF8DE4B3DF81E4B1DF80E2AFDF84E41B
:10020000ADDF85E4ABDF80E2A9DF82E4A7DF81E434
:10021000A5DF8AE4A3DF81E4A1DF80E29FDF83E43E
:100220009DDF81E49BDF8CE499DF89E497DF86E43E
:1002300095DF8FE493DF82E591DF8EE48FDF89E441
:100240008DDF81E48BDF8AE089DF8DE087DF80E569
:1002500085DF82E583DF81E481DF83E47FDF84E57E
:100260007DDF89E47BDF83E479DF81E477DF80E28F
:1002700075DF88E373DF81E671DF8AE06FDF8DE091
:100280006DCF0895CF93DF93CDB7DEB764970FB6E8
:10029000F894DEBF0FBECDBF80E090E036DF4EDFCA
:1002A00084DF8AE05BDF8DE059DFCE0101965EDFFF
:1002B0008AE054DF8AE052DF8DE050DF85E44EDFD4
:1002C0008AE04CDF8DE04ADFCE0101965FDF8AE0F5
:1002D00045DF8AE043DF8AE041DF8DE03FDF80E0F9
:1002E00090E064960FB6F894DEBF0FBECDBFDF91ED
:1002F000CF910895609102027091030200C00F93A4
:100300001F93CF93DF93FB01238121FD03C08FEF68
:100310009FEF2CC022FF16C0468157812481358172
:100320004217530744F4A081B1819D012F5F3F4FD5
:10033000318320838C93268137812F5F3F4F378312
:10034000268314C08B01EC01FB010084F185E02DB4
:100350001995892BE1F6D80116968D919C911797E6
:10036000019617969C938E931697CE01DF91CF91AD
:0A0370001F910F910895F894FFCF3C
:00000001FF
