S00B00005038612E7372656330
S113000071C0000079C0000077C0000075C0000016
S113001073C0000071C000006FC000006DC000001C
S11300206BC0000069C0000067C0000065C000002C
S113003063C0000061C000005FC000005DC000003C
S11300405BC0000059C0000057C0000055C000004C
S113005053C0000051C000004FC000004DC000005C
S11300604BC0000049C0000047C0000045C000006C
S113007043C0000041C000003FC000003DC000007C
S11300803BC0000039C0000037C0000035C000008C
S113009033C0000031C000002FC000002DC000009C
S11300A02BC0000029C0000027C0000025C00000AC
S11300B023C0000021C000001FC000001DC00000BC
S11300C01BC0000019C0000017C0000015C00000CC
S11300D013C0000011C000000FC000000DC00000DC
S11300E00BC0000011241FBECFEFD1E2DEBFCDBF95
S11300F000E00CBF1ED15CC183CF22E02093C0007E
S11301002BEF2093C10026E02093C200892B39F401
S11301108FEC90E09093C5008093C400089587E627
S113012090E09093C5008093C4000895E0ECF0E063
S113013080818823ECF78091C6000895E0ECF0E01C
S1130140908195FFFDCF8093C6000895EF92FF92B2
S11301500F931F93CF937C0100E010E0E7DFC82FDB
S11301600331110568F4883069F08D30F1F0E6DF71
S1130170F701C0830F5F1F4FC70101967C01EECFCB
S1130180883089F40115110549F388E0D7DF80E24E
S1130190D5DF88E0D3DFF701108201501109C701D0
S11301A001977C01DBCF8D30C9F6F7011082CF9126
S11301B01F910F91FF90EF900895CF93DF93EC017F
S11301C08881882329F02196B9DF89918111FCCF98
S11301D0DF91CF9108950F931F93CF93DF93362F21
S11301E0272FFC01C42FD0E08F01832F922FBE0153
S11301F0CBD0362F272F8A30910518F08F5B9F4F75
S113020001C0C096D8018C933196832F922FBE01E2
S1130210BBD0892B49F3F8011182DF91CF911F9153
S11302200F91089585E58ADF8EE488DF89E486DF0F
S113023086E584DF85E482DF82E580DF83E57EDF97
S113024089E47CDF84E47ADF81E478DF84E476DFA8
S113025080E274DF81E472DF85E570DF84E56EDFC0
S11302608FE46CDF8EE46ADF8FE468DF8DE466DFA1
S113027081E464DF80E262DF84E460DF85E45EDFE2
S113028080E25CDF82E45ADF81E458DF8AE456DFEF
S113029081E454DF80E252DF83E450DF81E44EDF07
S11302A08CE44CDF89E44ADF86E448DF8FE446DFF0
S11302B082E544DF8EE442DF89E440DF81E43EDF0F
S11302C08AE03CDF8DE03ADF80E538DF82E536DF27
S11302D081E434DF83E432DF84E530DF89E42EDF38
S11302E083E42CDF81E42ADF80E228DF88E326DF51
S11302F081E624DF8AE022DF8DE020CF08958AE0C2
S11303001DDF8DE01BCF0895FADFF9DFF8DF83E40A
S113031015DF81E413DF84E411DF85E40FDF8EE46D
S11303200DDF81E40BDF8AE309DF80E207DFE7CF3B
S11303300895CF93DF93CDB7DEB76E970FB6F894D9
S1130340DEBF0FBECDBF80E090E0D7DE6BDFCE0115
S11303500196FCDED9DFCE0101962FDF40E150E0AB
S11303606FEF70E0CE01459636DFC9DFCE014596CA
S113037024DF80E090E06E960FB6F894DEBF0FBEE7
S1130380CDBFDF91CF910895AA1BBB1B51E107C0DC
S1130390AA1FBB1FA617B70710F0A61BB70B881F11
S11303A0991F5A95A9F780959095BC01CD010895A0
S10703B0F894FFCFEB
S9030000FC
