:1000000071C0000079C0000077C0000075C000001A
:1000100073C0000071C000006FC000006DC0000020
:100020006BC0000069C0000067C0000065C0000030
:1000300063C0000061C000005FC000005DC0000040
:100040005BC0000059C0000057C0000055C0000050
:1000500053C0000051C000004FC000004DC0000060
:100060004BC0000049C0000047C0000045C0000070
:1000700043C0000041C000003FC000003DC0000080
:100080003BC0000039C0000037C0000035C0000090
:1000900033C0000031C000002FC000002DC00000A0
:1000A0002BC0000029C0000027C0000025C00000B0
:1000B00023C0000021C000001FC000001DC00000C0
:1000C0001BC0000019C0000017C0000015C00000D0
:1000D00013C0000011C000000FC000000DC00000E0
:1000E0000BC0000011241FBECFEFD1E2DEBFCDBF99
:1000F00000E00CBF15D152C183CF22E02093C00095
:100100002BEF2093C10026E02093C200892B39F405
:100110008FEC90E09093C5008093C400089587E62B
:1001200090E09093C5008093C4000895E0ECF0E067
:1001300080818823ECF78091C6000895E0ECF0E020
:10014000908195FFFDCF8093C6000895EF92FF92B6
:100150000F931F93CF937C0100E010E0E7DFC82FDF
:100160000331110568F4883069F08D30F1F0E6DF75
:10017000F701C0830F5F1F4FC70101967C01EECFCF
:10018000883089F40115110549F388E0D7DF80E252
:10019000D5DF88E0D3DFF701108201501109C701D4
:1001A00001977C01DBCF8D30C9F6F7011082CF912A
:1001B0001F910F91FF90EF900895CF93DF93EC0183
:1001C0008881882329F02196B9DF89918111FCCF9C
:1001D000DF91CF9108950F931F93CF93DF939B01EE
:1001E000FC01042F10E0EF01C901B801C3D0262F94
:1001F000372F8A30910510F0895C01C0805D8883BB
:1002000031962115310579F71982DF91CF911F9130
:100210000F91089585E592DF8EE490DF89E48EDF0B
:1002200086E58CDF85E48ADF82E588DF83E586DF8B
:1002300089E484DF84E482DF81E480DF84E47EDF9C
:1002400080E27CDF81E47ADF85E578DF84E576DFB4
:100250008FE474DF8EE472DF8FE470DF8DE46EDF95
:1002600081E46CDF80E26ADF84E468DF85E466DFD6
:1002700080E264DF82E462DF81E460DF8AE45EDFE3
:1002800081E45CDF80E25ADF83E458DF81E456DFFB
:100290008CE454DF89E452DF86E450DF8FE44EDFE4
:1002A00082E54CDF8EE44ADF89E448DF81E446DF03
:1002B0008AE044DF8DE042DF80E540DF82E53EDF1B
:1002C00081E43CDF83E43ADF84E538DF89E436DF2C
:1002D00083E434DF81E432DF80E230DF88E32EDF45
:1002E00081E62CDF8AE02ADF8DE028CF08958AE0BE
:1002F00025DF8DE023CF0895FADFF9DF83E41EDFE9
:1003000081E41CDF84E41ADF85E418DF8EE416DF65
:1003100081E414DF8AE312DF80E210DFE8CF089582
:10032000CF93DF93CDB7DEB76E970FB6F894DEBFED
:100330000FBECDBF80E090E0E0DE6CDFCE01019625
:1003400005DFDADFCE01019638DF4AE06FEE70E0BC
:10035000CE01459640DFCBDFCE0145962EDF80E013
:1003600090E06E960FB6F894DEBF0FBECDBFDF9162
:10037000CF910895AA1BBB1B51E107C0AA1FBB1F49
:10038000A617B70710F0A61BB70B881F991F5A9521
:10039000A9F780959095BC01CD010895F894FFCF01
:00000001FF
