:1000000071C0000086C0000084C0000082C00000F3
:1000100080C000007EC000007CC000007AC00000EC
:1000200078C0000076C0000074C0000072C00000FC
:1000300070C000006EC000006CC000006AC000000C
:1000400068C0000066C0000064C0000062C000001C
:1000500060C000005EC000005CC000005AC000002C
:1000600058C0000056C0000054C0000052C000003C
:1000700050C000004EC000004CC000004AC000004C
:1000800048C0000046C0000044C0000042C000005C
:1000900040C000003EC000003CC000003AC000006C
:1000A00038C0000036C0000034C0000032C000007C
:1000B00030C000002EC000002CC000002AC000008C
:1000C00028C0000026C0000024C0000022C000009C
:1000D00020C000001EC000001CC000001AC00000AC
:1000E00018C0000011241FBECFEFD1E2DEBFCDBF8C
:1000F00000E00CBF12E0A0E0B2E0E8E7F2E000E0D0
:100100000BBF02C007900D92A235B107D9F776D088
:10011000B1C076CF22E02093C0002BEF2093C10026
:1001200026E02093C200892B39F48FEC90E0909365
:10013000C5008093C400089587E690E09093C500C1
:100140008093C4000895E0ECF0E080818823ECF710
:100150008091C6000895E0ECF0E0908195FFFDCF1E
:100160008093C6000895CF93DF93EC0188818823A4
:1001700029F02196F0DF89918111FCCFDF91CF9199
:1001800008950F931F93CF93DF93FC019B01C0E071
:10019000D0E0042F10E002C0EC01FD01C901B8015C
:1001A00055D0262F372F8A30910510F0895C01C079
:1001B000805DDF0111968083CE0101962115310506
:1001C00059F71182A81BB90B209799F0FD01A80FD0
:1001D000B91F80E090E020813E91231711F0308319
:1001E0002C93019631969E01281B390B8217930799
:1001F00090F3DF91CF911F910F910895CF93DF93EB
:10020000CDB7DEB764970FB6F894DEBF0FBECDBF93
:1002100080E090E07FDF80E092E0A5DF94DF88E37C
:1002200092E0A1DF40E16BE770E0CE010196A9DF2B
:10023000CE01019698DF80E090E064960FB6F894C6
:10024000DEBF0FBECDBFDF91CF910895AA1BBB1BB0
:1002500051E107C0AA1FBB1FA617B70710F0A61BC6
:10026000B70B881F991F5A95A9F780959095BC01E7
:08027000CD010895F894FFCFC1
:100278000A0D556E6976657273696461642041750B
:10028800746F6E6F6D612064652042616A612043FE
:10029800616C69666F726E69610A0D2050726163E4
:1002A80074696361203861000A0D496E74726F6465
:1002B80075636520756E206EFA6D65726F3A0A0D6A
:0202C800000034
:00000001FF
