:1000000071C0000086C0000084C0000082C00000F3
:1000100080C000007EC000007CC000007AC00000EC
:1000200078C0000076C0000074C0000072C00000FC
:1000300070C000006EC000006CC000006AC000000C
:1000400068C0000066C0000064C0000062C000001C
:1000500060C000005EC000005CC000005AC000002C
:1000600058C0000056C0000054C0000052C000003C
:1000700050C000004EC000004CC000004AC000004C
:1000800048C0000046C0000044C0000042C000005C
:1000900040C000003EC000003CC000003AC000006C
:1000A00038C0000036C0000034C0000032C000007C
:1000B00030C000002EC000002CC000002AC000008C
:1000C00028C0000026C0000024C0000022C000009C
:1000D00020C000001EC000001CC000001AC00000AC
:1000E00018C0000011241FBECFEFD1E2DEBFCDBF8C
:1000F00000E00CBF12E0A0E0B2E0EEE6F3E000E0CA
:100100000BBF02C007900D92A036B107D9F702D0FD
:100110002CC176CFCF93DF93CDB7DEB764970FB600
:10012000F894DEBF0FBECDBF80E090E024D080E029
:1001300092E081D088E392E07ED0CE01019644D057
:10014000CE010196C3D08C014AE0BC01CE010196DC
:1001500080D082E592E06FD0CE0101966CD042E073
:10016000B801CE01019675D089E592E064D0CE0148
:10017000019661D0DCCF22E02093C0002BEF2093CA
:10018000C10026E02093C200892B39F48FEC90E067
:100190009093C5008093C400089587E690E0909303
:1001A000C5008093C4000895E0ECF0E080818823CE
:1001B000ECF78091C6000895E0ECF0E0908195FFA7
:1001C000FDCF8093C6000895EF92FF920F931F9387
:1001D000CF937C0100E010E0E7DFC82F0331110569
:1001E00068F4883069F08D30F1F0E6DFF701C08304
:1001F0000F5F1F4FC70101967C01EECF883089F455
:100200000115110549F388E0D7DF80E2D5DF88E0EA
:10021000D3DFF701108201501109C70101977C015A
:10022000DBCF8D30C9F6F7011082CF911F910F916E
:10023000FF90EF900895CF93DF93EC01888188239E
:1002400029F02196B9DF89918111FCCFDF91CF91FF
:1002500008950F931F93CF93DF93FC019B01C0E0A0
:10026000D0E0042F10E002C0EC01FD01C901B8018B
:1002700068D0262F372F8A30910510F0895C01C095
:10028000805DDF0111968083CE0101962115310535
:1002900059F71182A81BB90B209799F0FD01A80FFF
:1002A000B91F80E090E020813E91231711F0308348
:1002B0002C93019631969E01281B390B82179307C8
:1002C00090F3DF91CF911F910F910895FC01208150
:1002D000222389F1319680E090E001C0FA01BF014C
:1002E0000196AF014F5F5F4F20812111F7CF00973B
:1002F00029F1681B790B21E030E080E090E0429129
:1003000050E040535109429FD001439FB00D529F8E
:10031000B00D11248A0F9B1FA901440F551F220FF6
:10032000331F220F331F220F331F240F351FE617F1
:10033000F70729F7089580E090E0089580E090E0C5
:100340000895AA1BBB1B51E107C0AA1FBB1FA6171C
:10035000B70710F0A61BB70B881F991F5A95A9F76E
:0E03600080959095BC01CD010895F894FFCFD3
:10036E000A0D556E69766572736964616420417514
:10037E00746F6E6F6D612064652042616A61204307
:10038E00616C69666F726E69610A0D2050726163ED
:10039E0074696361203861000A0A0D496E74726FC8
:1003AE006475636520756E206EFA6D65726F3A0A1C
:1003BE000D000A0D4465633A000A0D42696E3A005B
:00000001FF
