:1000000071C0000081C000007FC000007DC0000002
:100010007BC0000079C0000077C0000075C0000000
:1000200073C0000071C000006FC000006DC0000010
:100030006BC0000069C0000067C0000065C0000020
:1000400063C0000061C000005FC000005DC0000030
:100050005BC0000059C0000057C0000055C0000040
:1000600053C0000051C000004FC000004DC0000050
:100070004BC0000049C0000047C0000045C0000060
:1000800043C0000041C000003FC000003DC0000070
:100090003BC0000039C0000037C0000035C0000080
:1000A00033C0000031C000002FC000002DC0000090
:1000B0002BC0000029C0000027C0000025C00000A0
:1000C00023C0000021C000001FC000001DC00000B0
:1000D0001BC0000019C0000017C0000015C00000C0
:1000E00013C0000011241FBECFEFD1E2DEBFCDBF91
:1000F00000E00CBF22E0A0E0B2E001C01D92A630FB
:10010000B207E1F785D0F9C07BCF22E02093C00091
:100110002BEF2093C10026E02093C200892B39F4F5
:100120008FEC90E09093C5008093C400089587E61B
:1001300090E09093C5008093C4000895E0ECF0E057
:1001400080818823ECF78091C6000895E0ECF0E010
:10015000908195FFFDCF8093C6000895CF93DF93E4
:10016000EC01ECDF8A3011F08993FBCF1882DF912C
:10017000CF9108950F931F93CF93DF93EC012196B6
:10018000FC018081882341F08E01899190E074D038
:10019000F80180818111F8CFDF91CF911F910F91EC
:1001A000089585E5D3DF8EE4D1DF89E4CFDF86E5EE
:1001B000CDDF85E4CBDF82E5C9DF83E5C7DF89E4F6
:1001C000C5DF84E4C3DF81E4C1DF84E4BFDF80E214
:1001D000BDDF81E4BBDF85E5B9DF80E5B7DF82E520
:1001E000B5DF81E4B3DF83E4B1DF84E5AFDF89E429
:1001F000ADDF83E4ABDF81E4A9DF80E2A7DF88E342
:10020000A5DF81E6A3DF8AE0A1DF8DE09FCF08951F
:10021000CF93DF93CDB7DEB764970FB6F894DEBF08
:100220000FBECDBF80E090E070DF88DFBADFCE0187
:10023000019694DF8AE08ADF8AE088DF8DE086DF3E
:1002400085E484DF8AE082DF8DE080DFCE010196E5
:1002500091DF8AE07BDF8AE079DF8AE077DF8DE07B
:1002600075DF80E090E064960FB6F894DEBF0FBEB5
:10027000CDBFDF91CF91089560910202709103028A
:1002800000C00F931F93CF93DF93FB01238121FDC8
:1002900003C08FEF9FEF2CC022FF16C0468157810D
:1002A000248135814217530744F4A081B1819D0117
:1002B0002F5F3F4F318320838C93268137812F5FBF
:1002C0003F4F3783268314C08B01EC01FB01008470
:1002D000F185E02D1995892BE1F6D80116968D91BF
:1002E0009C911797019617969C938E931697CE0123
:0E02F000DF91CF911F910F910895F894FFCFE9
:00000001FF
