:1000000071C0000079C0000077C0000075C000001A
:1000100073C0000071C000006FC000006DC0000020
:100020006BC0000069C0000067C0000065C0000030
:1000300063C0000061C000005FC000005DC0000040
:100040005BC0000059C0000057C0000055C0000050
:1000500053C0000051C000004FC000004DC0000060
:100060004BC0000049C0000047C0000045C0000070
:1000700043C0000041C000003FC000003DC0000080
:100080003BC0000039C0000037C0000035C0000090
:1000900033C0000031C000002FC000002DC00000A0
:1000A0002BC0000029C0000027C0000025C00000B0
:1000B00023C0000021C000001FC000001DC00000C0
:1000C0001BC0000019C0000017C0000015C00000D0
:1000D00013C0000011C000000FC000000DC00000E0
:1000E0000BC0000011241FBECFEFD1E2DEBFCDBF99
:1000F00000E00CBFF7D016C183CF22E02093C000F0
:100100002BEF2093C10026E02093C200892B39F405
:100110008FEC90E09093C5008093C400089587E62B
:1001200090E09093C5008093C4000895E0ECF0E067
:1001300080818823ECF78091C6000895E0ECF0E020
:10014000908195FFFDCF8093C6000895EF92FF92B6
:100150000F931F93CF937C0100E010E0E7DFC82FDF
:100160000331110568F4883069F08D30F1F0E6DF75
:10017000F701C0830F5F1F4FC70101967C01EECFCF
:10018000883089F40115110549F388E0D7DF80E252
:10019000D5DF88E0D3DFF701108201501109C701D4
:1001A00001977C01DBCF8D30C9F6F7011082CF912A
:1001B0001F910F91FF90EF900895CF93DF93EC0183
:1001C0008881882329F02196B9DF89918111FCCF9C
:1001D000DF91CF91089585E5B1DF8EE4AFDF89E44B
:1001E000ADDF86E5ABDF85E4A9DF82E5A7DF83E548
:1001F000A5DF89E4A3DF84E4A1DF81E49FDF84E459
:100200009DDF80E29BDF81E499DF85E597DF84E570
:1002100095DF8FE493DF8EE491DF8FE48FDF8DE451
:100220008DDF81E48BDF80E289DF84E487DF85E492
:1002300085DF80E283DF82E481DF81E47FDF8AE49F
:100240007DDF81E47BDF80E279DF83E477DF81E4B7
:1002500075DF8CE473DF89E471DF86E46FDF8FE4A0
:100260006DDF82E56BDF8EE469DF89E467DF81E4BF
:1002700065DF8AE063DF8DE061DF80E55FDF82E5D7
:100280005DDF81E45BDF83E459DF84E557DF89E4E8
:1002900055DF83E453DF81E451DF80E24FDF88E301
:1002A0004DDF81E64BDF8AE049DF8DE047CF0895DF
:1002B0008AE044DF8DE042CF0895FADFF9DFF8DF0E
:1002C00083E43CDF81E43ADF84E438DF85E436DF31
:1002D0008EE434DF81E432DF8AE330DF80E22EDF38
:1002E000E7CF0895CF93DF93CDB7DEB764970FB60E
:1002F000F894DEBF0FBECDBF80E090E0FEDE6BDF86
:10030000CE01019623DFD9DFCE01019656DF80E0D2
:1003100090E064960FB6F894DEBF0FBECDBFDF91BC
:08032000CF910895F894FFCF7E
:00000001FF
